:100000000C9472000C9491000C9491000C9491004B
:100010000C9491000C9491000C9491000C9491001C
:100020000C9491000C9491000C9491000C9491000C
:100030000C9491000C9491000C9491000C949100FC
:100040000C9491000C9491000C9491000C949100EC
:100050000C9491000C9491000C9491000C949100DC
:100060000C9491000C9491000C9491000C949100CC
:100070000C9491000C9491000C9491000C949100BC
:100080000C9491000C9491000C9491000C949100AC
:100090000C9491000C9491000C9491000C9491009C
:1000A0000C9491000C9491000C9491000C9491008C
:1000B0000C9491000C9491000C9491000C9491007C
:1000C0000C9491000C9491000C9491000C9491006C
:1000D0000C9491000C9491000C9491000C9491005C
:1000E0000C94910011241FBECFEFD1E2DEBFCDBF33
:1000F00013E0A0E0B2E0EAE7F4E100E00BBF02C0E9
:1001000007900D92A236B107D9F713E0A2E6B3E04B
:1001100001C01D92A83EB107E1F70E94FE060C94B3
:100120003B0A0C940000E42FF52FDF010D90002016
:10013000E9F71197AE1BBF0B68177907DCF09D013B
:1001400021503040A0E3F999FECF72BD61BD332349
:1001500034F0FA01E20FF31FE081E0BD01C0A0BD61
:10016000FA9AF99A61507040681779071CF021508B
:100170003040E9CF0895EF92FF920F931F93CF93F2
:10018000DF938C01EB011092980368177907B8F0A0
:100190000F2EF8E9EF2EF3E0FF2EF02DF999FECFA8
:1001A00012BD01BDF89AC70160E470E041E050E083
:1001B0000E9443070F5F1F4FC017D10778F788E9E8
:1001C00093E0DF91CF911F910F91FF90EF900895F1
:1001D000CF93DF932DB73EB7285030400FB6F89439
:1001E0003EBF0FBE2DBFEDB7FEB73196CAE7D3E0D5
:1001F000ADB7BEB71296DC93CE93119720E032E0F4
:100200003383228364837583868397830E945B078D
:100210002DB73EB7285F3F4F0FB6F8943EBF0FBED5
:100220002DBFCE01DF91CF910895A59A83EC99E07F
:100230000197F1F700C00000A59883EC99E00197C1
:10024000F1F700C000000895CF93DF93429AA4987D
:10025000A398C2E0D1E08FE388830E9415018FE06C
:1002600088830E94150180E188830E941501DF9137
:10027000CF910895A39888E0809302010E94150110
:1002800008952F923F924F925F926F927F928F923A
:100290009F92AF92BF92CF92DF92EF92FF920F9315
:1002A0001F93DF93CF93CDB7DEB728970FB6F8949F
:1002B000DEBF0FBECDBFE82E092FC62EA72E3A01F6
:1002C0000E943A010E94240177200CF469C0F02EAC
:1002D0008A2DAC2CB82E882499241E010894211C48
:1002E000311C0F2EF2E0CF2EF1E0DF2EF02D442452
:1002F00055248501D5018D919C91119718161906E9
:10030000BCF4A3980E941501D101E9E5F3E088E06F
:1003100001900D928150E1F7D801ED91FC91EE0F23
:10032000FF1FE20DF31D8081F60180830E941501FD
:10033000A39A0E94150182E090E0A80EB91ED80190
:100340008D919C911197009729F480E2F6018083AA
:100350000E94150182010AC0800F911FDC018C915F
:10036000F60180830E9415010F5F1F4FD7018D9109
:100370009C91E82FF92FDF010D900020E9F71197EC
:10038000AE1BBF0B0A171B0738F30894811C911C86
:10039000E2E0F0E0EE0EFF1E681479040CF0A9CF45
:1003A00028960FB6F894DEBF0FBECDBFCF91DF9178
:1003B0001F910F91FF90EF90DF90CF90BF90AF9083
:1003C0009F908F907F906F905F904F903F902F9075
:1003D0000895AF92BF92CF92DF92EF92FF920F9368
:1003E0001F93DF93CF93CDB7DEB728970FB6F8945E
:1003F000DEBF0FBECDBFD82EC92E8B01A3980E94A1
:100400001501101611069CF4DE011196E1E5F3E0EA
:1004100088E001900D928150E1F7F801EE0FFF1F87
:10042000EC0FFD1F8181809302010E941501A39AA8
:100430000E9415010115110529F480E28093020143
:100440000E941501ED2CFC2C00E010E00F2EF2E0D4
:10045000AF2EF1E0BF2EF02D09C0F70181917F0191
:10046000F50180830E9415010F5F1F4FED2DFC2DBC
:10047000DF010D900020E9F71197AE1BBF0B0A17A3
:100480001B0758F328960FB6F894DEBF0FBECDBFFA
:10049000CF91DF911F910F91FF90EF90DF90CF9060
:1004A000BF90AF900895A3980E94150181E08093BA
:1004B00002010E94150108952F923F924F925F9280
:1004C0007F928F929F92AF92BF92CF92DF92EF92E4
:1004D000FF920F931F93DF93CF93CDB7DEB72D9786
:1004E0000FB6F894DEBF0FBECDBF1092840388EF25
:1004F00080930401DE011196E5E4F3E08CE00190C5
:100500000D928150E1F70F2EFAE27F2EF02D5E0161
:100510000894A11CB11C0F2EF3E08F2E9924F02D0E
:10052000EE24FF24E3940F2EF5E0CF2EF1E0DF2E32
:10053000F02D03E011E00F2EF4E84F2EF3E05F2ED4
:10054000F02D0F2EFDE02F2E3324F02D2C0E3D1E0E
:100550007D86F501C4019701082E02C0220F331FCA
:100560000A94E2F72095D6012C93D8012C9122FD14
:1005700002C020812D87D8012C9121FD02C021814C
:100580002D87D8012C9120FD02C022812D87019654
:10059000339687309105F9F68D85833289F08A325A
:1005A000B9F2C201B101A7010E9443078FE996E8A1
:1005B000A1E081509040A040E1F700C00000C8CF0A
:1005C0000E94240184E893E02D960FB6F894DEBFD4
:1005D0000FBECDBFCF91DF911F910F91FF90EF9094
:1005E000DF90CF90BF90AF909F908F907F905F9063
:1005F0004F903F902F90089581E090E06AE070E086
:100600000E94BB000E9413079093630380936203D0
:100610008BE090E064E170E00E94BB000E94130751
:10062000909365038093640385E190E06EE170E050
:100630000E94BB000E941307909367038093660398
:100640008FE190E068E270E00E94BB000E94130717
:100650008093780390937903282F392FA90155238C
:1006600014F44F5F5F4F5595479550937703409330
:100670007603282F392FC90199230CF403969595F9
:100680008795959587959093750380937403089546
:100690000F931F93DF93CF93CDB7DEB764970FB659
:1006A000F894DEBF0FBECDBF80E188B984E092E050
:1006B00060E070E00E94E9018FE092E061E070E0AC
:1006C0000E94E90184E292E062E070E00E94E901A8
:1006D0008FE39DE0A3E081509040A040E1F700C08F
:1006E00000000E9453020E9424018BE292E060E02D
:1006F00070E00E94E9018FE39DE0A3E0815090400B
:10070000A040E1F700C000000E9453028EE392E097
:1007100060E070E00E94E90189E492E061E070E04D
:100720000E94E90183E592E062E070E00E94E90145
:100730000E945C02BC018E010F5F1F4FC8010E9426
:100740003C07C8010E9413078093780390937903B4
:10075000282F392FA901552314F44F5F5F4F55956A
:1007600047955093770340937603282F392FC9017B
:1007700099230CF403969595879595958795909375
:100780007503809374038FE190E068E270E08E015E
:100790000F5F1F4FA8010E949300D8010D90002009
:1007A000E9F71197EEE5F2E089E001900D928150B2
:1007B000E1F70E94530287E692E060E070E00E9459
:1007C000E9018E010F5F1F4FC80161E070E00E94D8
:1007D000E9018FE39DE0A3E081509040A040E1F764
:1007E00000C000000E94530286E792E060E070E0E3
:1007F0000E94E90183E892E061E070E00E94E90173
:1008000081E992E062E070E00E94E90180EA92E012
:1008100063E070E00E94E9018FED93E9A4E081506C
:100820009040A040E1F700C000000E9453028EEA11
:1008300092E060E070E00E94E9010E945C02BC016D
:10084000C8010E943C0781E090E06AE070E0A801E6
:100850000E949300C8010E94130790936303809342
:100860006203D8010D900020E9F71197EAEBF2E05E
:100870008CE001900D928150E1F78E010F5F1F4FC8
:10088000C80161E070E00E94E9018FED93E9A4E006
:1008900081509040A040E1F700C000000E94530248
:1008A00086EC92E060E070E00E94E9010E945C0248
:1008B000BC01C8010E943C07C8010E941307909325
:1008C0006503809364038BE090E064E170E0A8012D
:1008D0000E949300D8010D900020E9F71197EAEBF0
:1008E000F2E08CE001900D928150E1F78E010F5FF4
:1008F0001F4FC80161E070E00E94E9018FED93E9AC
:10090000A4E081509040A040E1F700C000000E94A8
:10091000530283ED92E060E070E00E94E9010E94E2
:100920005C02BC01C8010E943C07C8010E94130779
:10093000909367038093660385E190E06EE170E039
:10094000A8010E949300D8010D900020E9F71197AB
:10095000EAEBF2E08CE001900D928150E1F7CE01DC
:10096000019661E070E00E94E9018FED93E9A4E057
:1009700081509040A040E1F700C000000E94530267
:1009800064960FB6F894DEBF0FBECDBFCF91DF9156
:100990001F910F9108952F923F924F925F926F9205
:1009A0007F928F929F92AF92BF92CF92DF92EF92FF
:1009B000FF920F931F93DF93CF93CDB7DEB7CA5546
:1009C000D0400FB6F894DEBF0FBECDBF63969FAF89
:1009D0008EAF639718B8833091050CF0BAC1639657
:1009E0008EAD9FAD6397880F991F63962EAD3FAD77
:1009F0006397220F331F220F331F220F331F280F3D
:100A0000391FA901475D5F4F2F965FAF4EAF2F97FC
:100A1000D901D2966196BFAFAEAF6197FC01EE5996
:100A2000FC4F6796FFAFEEAF67970F2EFFE34F2E99
:100A3000F3E05F2EF02D480E591E9C012C583C4FC0
:100A400065963FAF2EAF65974E010894811C911CAF
:100A5000C401382C292E81E090E068968FAF68970A
:100A600069969FAF6997CE01CF966A968FAF6A97C6
:100A70006B969FAF6B9780E090E02C968FAF2C9792
:100A80002D969FAF2D9763964EAD5FAD63974F5FE9
:100A90005F4F63965FAF4EAF6397BA01882777FDCC
:100AA0008095982F0E94E800AC0180E090E060E023
:100AB00070E00E9493002E965FAD2E9724965FAF54
:100AC00024972F968FAD2F9725968FAF25972F962A
:100AD000AEADBFAD2F9798972396BFAFAEAF23971C
:100AE0006096BFAD60972696BFAF26976196EFAD33
:100AF00061972796EFAF27972F968EAD9FAD2F97D3
:100B000061966EAD7FAD61970E94BB000E94130796
:100B10006796AEADBFAD6797ED90FD906796BFAF9E
:100B2000AEAF67971E141F040CF0E3C05C01CC2429
:100B3000B7FCC094DC2CC2012A964FAE2A972B96A4
:100B40009FAF2B9765960EAD1FAD65972F96EEADB7
:100B5000FFAD2F977F972996FFAFEEAF29970E94A1
:100B6000240100D000D000D0EDB7FEB73196ADB76C
:100B7000BEB712969C928E9211972FED32E033837E
:100B80002283F582E4820E945B072A966FAC2A9743
:100B90002B967FAC2B974DB75EB74A5F5F4F0FB672
:100BA000F8945EBF0FBE4DBFD2016D917C91832D35
:100BB000922D0E943107D4010D900020E9F7119782
:100BC000E2EFF2E08BE001900D928150E1F73DAE53
:100BD0002EAEE1E0F0E02196FFAFEEAF2197CE011F
:100BE000CD966A966FAD6A976B967FAD6B97689658
:100BF0004FAD689769965FAD69970E944101659610
:100C0000AEADBFAD65978D919C91119718161906E1
:100C1000BCF42C968FAD2C972D969FAD2D97F80197
:100C20002FE33DE043E0215030404040E1F700C079
:100C30000000019620813181821793078CF38F0188
:100C40000894E108F108B701882777FD8095982F6F
:100C50000E94E800AC0123968EAD9FAD23972996A4
:100C60006EAD7FAD29970E9493000894A11CB11C22
:100C7000C11CD11CC601B5010E94E800AC0124963C
:100C80008FAD249725969FAD259726966FAD269715
:100C900027967FAD27970E949300E114F10429F570
:100CA0000E945302D3016D917C91832D922D0E945D
:100CB0003C07D4010D900020E9F71197EDEFF2E029
:100CC0008AE001900D928150E1F7832D922D61E031
:100CD00070E00E94E9012FE936E841E02150304000
:100CE0004040E1F700C0000004C01E141F040CF4D3
:100CF00036CF0E94530287E093E061E070E00E94EB
:100D0000E9012F964EAD5FAD2F97465F5F4F2F964F
:100D10005FAF4EAF2F9761968EAD9FAD61970A96EC
:100D200061969FAF8EAF6197A2E0B0E04A0E5B1E66
:100D30006596EEADFFAD659732966596FFAFEEAF67
:100D4000659763962EAD3FAD6397233031050CF464
:100D50009ACE80E090E060E070E04BE153E00E94CA
:100D60009300C65ADF4F0FB6F894DEBF0FBECDBF5B
:100D7000CF91DF911F910F91FF90EF90DF90CF9077
:100D8000BF90AF909F908F907F906F905F904F90AB
:100D90003F902F9008950F931F93CF93DF9380E0A0
:100DA00090E060E070E00E94BB00FC01208130E038
:100DB000205330402A30310580F0C0E0D0E00BE114
:100DC00013E0BE01675F7F4FCE01A8010E94930030
:100DD0002A96C436D105A9F70CC00E941307EC016E
:100DE0001816190634F40E94FC02CE0101970E94E5
:100DF000CB04DF91CF911F910F9108958FEF87B9A9
:100E00001AB883BB809301018093070110920401FB
:100E10000E9424010E94CB060E94480380E090E0DB
:100E20000E94CB04FFCFFC0188279927E8942191E9
:100E30002032E9F3293010F02E30C8F32B3241F084
:100E40002D3239F4689404C00E945307820F911D1B
:100E5000219120532A30C0F31EF4909581959F4F25
:100E60000895FB01DC010D900020E9F71197019036
:100E70000D920020E1F70895FB01DC0101900D9235
:100E80000020E1F70895FB01DC010D900020E9F757
:100E900011974150504028F0019000200D92C9F761
:100EA00008951C9208957AE0979F902D879F802D3A
:100EB000910D112408950F931F93DF93CF93CDB716
:100EC000DEB72E970FB6F894DEBF0FBECDBF0D89EB
:100ED0001E8986E08C831A8309838FEF9FE79E83A8
:100EE0008D839E01275E3F4FCE0101966F89788DDD
:100EF000A9010E948B07EF81F885E00FF11F108296
:100F00002E960FB6F894DEBF0FBECDBFCF91DF9106
:100F10001F910F9108952F923F924F925F926F927F
:100F20007F928F929F92AF92BF92CF92DF92EF9279
:100F3000FF920F931F93DF93CF93CDB7DEB72C971C
:100F40000FB6F894DEBF0FBECDBF6C011B018A0146
:100F5000FC0117821682838181FFD1C12E01089482
:100F6000411C511CF6019381F10193FD859193FF82
:100F700081911F01882309F4BEC1853239F493FDA4
:100F8000859193FF81911F01853229F490E0B6018C
:100F90000E94B109E7CFEE24FF2420E02032B0F414
:100FA0008B3269F08C3228F4803251F0833271F444
:100FB0000BC08D3239F0803349F421602CC022609F
:100FC000246029C0286027C0206125C027FD2CC0CF
:100FD000382F30533A3098F426FF08C08E2D880FF2
:100FE000E82EEE0CEE0CE80EE30E15C08F2D880FE8
:100FF000F82EFF0CFF0CF80EF30E20620CC08E32A0
:1010000021F426FD78C1206406C08C3611F42068D6
:1010100002C0883649F4F10193FD859193FF8191D7
:101020001F01882309F0BACF982F9554933018F0F8
:101030009052933028F40C5F1F4FFFE3F9830DC0EB
:10104000833631F0833771F0833509F060C022C0F8
:10105000F801808189830E5F1F4F420171E0A72E46
:10106000B12C16C062E0662E712C600E711EF80164
:101070008080918026FF03C06E2D70E002C06FEF6C
:101080007FEFC4012C870E94A6095C0183012C8597
:101090002F7717C052E0652E712C600E711EF8017B
:1010A0008080918026FF03C06E2D70E002C06FEF3C
:1010B0007FEFC4012C870E949B095C012C8520686E
:1010C000830123FD20C008C080E290E0B6012C8798
:1010D0000E94B109FA942C858F2D90E0A816B906CC
:1010E00098F311C0F40127FD859127FF81914F01ED
:1010F00090E0B6012C870E94B1092C85F110FA947A
:101100000894A108B108A114B10461F7F1C08436B4
:1011100011F0893649F527FF08C0F8016081718117
:10112000828193810C5F1F4F09C0F801608171813A
:10113000882777FD8095982F0E5F1F4F4FE6B42EBE
:10114000B22297FF09C090958095709561957F4F69
:101150008F4F9F4FF0E8BF2AA2012AE030E00E94A3
:10116000DD09782E741845C0853731F43FEEB32E73
:10117000B2222AE030E025C099EFB92EB2228F3694
:10118000C1F0803720F4883509F0B5C00DC0803734
:1011900021F0883709F0AFC002C020E1B22AB4FEC6
:1011A0000BC084E0B82A08C0B4FE09C0E6E0BE2A3D
:1011B00006C028E030E005C020E130E002C020E1B8
:1011C00032E0B7FE08C0F8016081718182819381AD
:1011D0000C5F1F4F07C0F8016081718180E090E0D3
:1011E0000E5F1F4FA2010E94DD09782E7418FFE7E1
:1011F000BF22B6FE0BC02EEFB2227E1438F4B4FE2E
:1012000007C0B2FC05C08FEEB82202C0A72C01C0F7
:10121000AE2C8B2D90E0B4FE0DC0FE01E70DF11D4C
:101220002081203319F4E9EEBE2209C0A394B2FE56
:1012300006C004C086789070009709F0A3948B2CA8
:101240009924B3FC14C0B0FE0FC0AF1428F4E72CEF
:10125000EF0CEA18AF2C08C0E72C06C080E290E043
:10126000B6010E94B109A394AF14C0F304C0AF1437
:1012700010F4FA1801C0FF2484FE0FC080E390E050
:10128000B6010E94B10982FE1FC081FE03C088E53D
:1012900090E010C088E790E00DC0C401867890709F
:1012A000009791F081FC02C080E201C08BE2B7FCA4
:1012B0008DE290E0B6010E94B10906C080E390E0A3
:1012C000B6010E94B109EA947E14C0F37A94F20147
:1012D000E70DF11D808190E0B6010E94B1097720F1
:1012E000A9F706C080E290E0B6010E94B109FA9425
:1012F000FF20C1F737CEF6012681378102C02FEFDC
:101300003FEFC9012C960FB6F894DEBF0FBECDBFDC
:10131000CF91DF911F910F91FF90EF90DF90CF90D1
:10132000BF90AF909F908F907F906F905F904F9005
:101330003F902F900895FC0105906150704001107E
:10134000D8F7809590958E0F9F1F0895FC016150EE
:10135000704001900110D8F7809590958E0F9F1FD7
:1013600008950F931F93CF93DF938C01EB018B8133
:1013700081FF1BC082FF0DC02E813F818C819D812A
:101380002817390764F4E881F9810193F983E88328
:1013900006C0E885F985802F0995009731F48E8184
:1013A0009F8101969F838E8302C00FEF1FEFC801BC
:1013B000DF91CF911F910F910895FA01AA2728304C
:1013C00051F1203181F1E8946F936E7F6E5F7F4F12
:1013D0008F4F9F4FAF4FB1E03ED0B4E03CD0670F8E
:1013E000781F891F9A1FA11D680F791F8A1F911DE1
:1013F000A11D6A0F711D811D911DA11D20D009F431
:1014000068943F912AE0269F11243019305D319372
:10141000DEF6CF010895462F4770405D4193B3E05B
:101420000FD0C9F7F6CF462F4F70405D4A3318F002
:10143000495D31FD4052419302D0A9F7EACFB4E0B3
:10144000A6959795879577956795BA95C9F700976B
:101450006105710508959B01AC010A2E069457950C
:10146000479537952795BA95C9F7620F731F841F63
:0A147000951FA01D0895F894FFCF0A
:10147A00256C750057454C434F4D4520544F00434A
:10148A004F4D464F525441424C45204245444449EF
:10149A004E47530053595354454D00534554204326
:1014AA004F4E46494755524154494F4E5300454EB7
:1014BA005445522054494D4500464F52204C415202
:1014CA004745004D415454524553533A2000207326
:1014DA0065636F6E64730054494D452053454C450E
:1014EA00435445443A00454E544552204E554D42C8
:1014FA004552004F46204D4154545245535345538B
:10150A0000544F204D414E554641435455524500D3
:10151A00464F5220454143482053495A4500534DAE
:10152A00414C4C2053495A453A00206D61747472FB
:10153A006573736573004D454449554D2053495AA7
:10154A00453A004C415247452053495A453A004DC5
:10155A00414E55464143545552494E472E2E2E254B
:10156A0064002072656D61696E696E670020636F41
:10157A006D706C657465005061636B696E67206895
:10158A0061732073746172746564003000736D61F5
:10159A006C6C2073697A65006D656469756D20737A
:1015AA00697A65006C617267652073697A65001DE6
:1015BA0003280334033132333435363738392A3085
:1015CA00238000BF009300D3008000BF009300D3A4
:0215DA0000000F
:00000001FF
