:1000000071C000008CC000008AC0000088C00000E1
:1000100086C0000084C0000082C0000080C00000D4
:100020007EC000007CC000007AC0000078C00000E4
:1000300076C0000074C0000072C0000070C00000F4
:100040006EC000006CC000006AC0000068C0000004
:1000500066C0000064C0000062C0000060C0000014
:100060005EC000005CC000005AC0000058C0000024
:1000700056C0000054C0000052C0000050C0000034
:100080004EC000004CC000004AC0000048C0000044
:1000900046C0000044C0000042C0000040C0000054
:1000A0003EC000003CC000003AC0000038C0000064
:1000B00036C0000034C0000032C0000030C0000074
:1000C0002EC000002CC000002AC0000028C0000084
:1000D00026C0000024C0000022C0000020C0000094
:1000E0001EC0000011241FBECFEFD1E2DEBFCDBF86
:1000F00012E0A0E0B2E0E2EAFAE000E00BBF02C0EA
:1001000007900D92AC3CB107D9F722E0ACECB2E01D
:1001100001C01D92A03EB207E1F7A4D1C0C470CFC8
:1001200084B3806284BB83EC99E00197F1F700C04F
:10013000000084B38F7D84BB83EC99E00197F1F7D5
:1001400000C000000895CF93DF9384B38F7E84BBFB
:1001500084B3877F84BBC2E0D1E088E38883E0DF9B
:100160008FE08883DDDF80E18883DADFDF91CF9164
:100170000895EF92FF920F931F93CF93DF93CDB724
:10018000DEB728970FB6F894DEBF0FBECDBF7C0157
:100190008B0184B3877F84BBC3DF88E0EAE0F2E0B1
:1001A000DE01119601900D928A95E1F7000F111F63
:1001B000E1E0F0E0EC0FFD1FE00FF11F8081809384
:1001C0000201AEDF84B3886084BBAADF00E010E0E8
:1001D00009C0F701E00FF11F808180930201A0DFC9
:1001E0000F5F1F4FF70101900020E9F73197EE19DB
:1001F000FF090E171F0768F328960FB6F894DEBFA5
:100200000FBECDBFDF91CF911F910F91FF90EF9067
:10021000089584B3877F84BB83DF81E080930201EC
:100220007FCF0895CF93DF93CDB7DEB72D970FB66D
:10023000F894DEBF0FBECDBF1092CC0288EF809342
:1002400004018CE0E2E1F2E0DE01119601900D92F2
:100250008A95E1F78AE28D8743E050E020E030E0C4
:1002600042C081E090E0042E02C0880F991F0A94DA
:10027000E2F78095809305018091030182FD0DC016
:10028000F901EE0FFF1FE20FF31F81E090E08C0FEA
:100290009D1FE80FF91F80818D878091030181FDEB
:1002A0000DC0F901EE0FFF1FE20FF31F81E090E098
:1002B0008C0F9D1FE80FF91F81818D8780910301AD
:1002C00080FD0DC0F901EE0FFF1FE20FF31F81E06B
:1002D00090E08C0F9D1FE80FF91F82818D872F5FA3
:1002E0003F4F4F5F5F4F473051050CF4BACF8D85BC
:1002F0008332A9F08A3209F4ADCF41E050E0BE016B
:10030000635F7F4F8CEC92E0D7D09FE926E881E0D5
:10031000915020408040E1F700C000009BCF8CEC62
:1003200092E02D960FB6F894DEBF0FBECDBFDF91E1
:10033000CF9108950F931F93CF93DF9300D000D0F8
:1003400000D0CDB7DEB760E070E08EE192E011DF63
:1003500061E070E089E292E00CDF62E070E08DE342
:1003600092E007DF2FE38DE093E021508040904042
:10037000E1F700C000004DDFE6DE60E070E084E4FD
:1003800092E0F7DE61E070E086E592E0F2DE2FE3D6
:100390008DE093E0215080409040E1F700C00000E4
:1003A00038DFD1DE60E070E08AE692E0E2DE61E014
:1003B00070E082E792E0DDDE62E070E08BE792E0E1
:1003C000D8DE30DF5CD0909303028093020221DFFD
:1003D000E0910202F09103023197EE0FFF1FEC5FF4
:1003E000FD4F60E070E080819181C3DE61E070E0EC
:1003F00083E892E0BEDE62E070E082E992E0B9DE7E
:1004000063E070E08BE992E0B4DE0CDF38D09093CB
:10041000010280930002FDDE96DE809101028F933F
:10042000809100028F9386EA92E09F938F938E01D2
:100430000F5F1F4F1F930F9357D061E070E0C8010B
:1004400098DE0F900F900F900F900F900F902696C0
:100450000FB6F894DEBF0FBECDBFDF91CF911F91D5
:100460000F9108958FEF87B91AB883BB809301016C
:10047000809307011092040166DE5CDFFFCFFC0170
:1004800088279927E89421912032E9F3293010F048
:100490002E30C8F32B3239F02D3231F4689403C07A
:1004A0001BD0820F911D219120532A30C8F31EF4D6
:1004B000909581959F4F0895FB01DC010D900020E0
:1004C000E9F711974150504028F0019000200D921B
:1004D000C9F708951C9208957AE0979F902D879F01
:1004E000802D910D112408950F931F93CF93DF93C7
:1004F000CDB7DEB72E970FB6F894DEBF0FBECDBFD7
:100500000D891E8986E08C831A8309838FEF9FE70C
:100510009E838D83AE01475E5F4F6F89788DCE01DC
:10052000019610D0EF81F885E00FF11F10822E9612
:100530000FB6F894DEBF0FBECDBFDF91CF911F91F4
:100540000F9108952F923F924F925F926F927F92F8
:100550008F929F92AF92BF92CF92DF92EF92FF92D3
:100560000F931F93CF93DF93CDB7DEB72B970FB6C3
:10057000F894DEBF0FBECDBF6C017B018A01FC0188
:1005800017821682838181FFBFC1CE0101963C0193
:10059000F6019381F70193FD859193FF81917F018E
:1005A000882309F4ADC1853239F493FD859193FF19
:1005B00081917F01853221F4B60190E0D6D1E8CF58
:1005C000912C212C312CFFE1F315D8F08B3279F0EE
:1005D00038F4803279F08332A1F4232D20611DC0DC
:1005E0008D3261F0803369F4232D216016C0832D94
:1005F0008260382EE32DE4603E2E2AC0F32DF86091
:100600001DC037FC2DC020ED280F2A3040F08E325F
:10061000B9F436FC75C1232D2064322E19C036FE84
:1006200006C08AE0989E200D1124922E11C0EAE0A7
:100630002E9E200D1124222EF32DF0623F2E08C095
:100640008C3621F4832D8068382E02C0883641F420
:10065000F70193FD859193FF81917F018111B3CFC4
:10066000982F9F7D9554933028F40C5F1F4F9FE384
:1006700099830DC0833631F0833771F0833509F0EB
:1006800055C020C0F801808189830E5F1F4F8824E8
:100690008394912C530112C02801F2E04F0E511C9B
:1006A000F801A080B18036FE03C0692D70E002C061
:1006B0006FEF7FEFC5014ED14C018201F32DFF7723
:1006C0003F2E15C0280122E0420E511CF801A080E7
:1006D000B18036FE03C0692D70E002C06FEF7FEF7E
:1006E000C5012DD14C01F32DF0683F2E820133FC62
:1006F00019C0822D90E088169906A0F4B60180E218
:1007000090E033D12A94F5CFF50137FC859137FE7F
:1007100081915F01B60190E028D121102A9421E057
:10072000821A91088114910479F7E1C0843611F09E
:10073000893639F5F80137FE07C060817181828101
:1007400093810C5F1F4F08C060817181072E000CE0
:10075000880B990B0E5F1F4FF32DFF763F2E97FFEF
:1007600009C090958095709561957F4F8F4F9F4FF1
:10077000F0683F2E2AE030E0A30133D1882E86189E
:1007800044C0853731F4232D2F7EB22E2AE030E08D
:1007900025C0932D997FB92E8F36C1F018F4883576
:1007A00079F0AEC0803719F0883721F0A9C0E92F61
:1007B000E061BE2EB4FE0DC0FB2DF460BF2E09C05B
:1007C00034FE0AC0292F2660B22E06C028E030E091
:1007D00005C020E130E002C020E132E0F801B7FEC0
:1007E00007C060817181828193810C5F1F4F06C0B9
:1007F0006081718180E090E00E5F1F4FA301F1D016
:10080000882E8618FB2DFF773F2E36FE0DC0232D38
:100810002E7FA22E891458F434FE0BC032FC09C07E
:10082000832D8E7EA82E05C0B82CA32C03C0B82C17
:1008300001C0B92CA4FE0FC0FE01E80DF11D80819E
:10084000803321F49A2D997EA92E09C0A2FE06C0FC
:10085000B394B39404C08A2D867809F0B394A3FCB2
:1008600010C0A0FE06C0B21480F4280C922C9B1875
:100870000DC0B21458F4B60180E290E076D0B39483
:10088000F8CFB21418F42B1802C0982C212CA4FE17
:100890000FC0B60180E390E068D0A2FE16C0A1FCB4
:1008A00003C088E790E002C088E590E0B6010CC084
:1008B0008A2D867851F0A1FE02C08BE201C080E251
:1008C000A7FC8DE2B60190E050D0891430F4B60157
:1008D00080E390E04AD09A94F8CF8A94F301E80D2F
:1008E000F11D8081B60190E040D08110F6CF22202A
:1008F00009F44ECEB60180E290E037D02A94F7CFCB
:10090000F6018681978102C08FEF9FEF2B960FB67D
:10091000F894DEBF0FBECDBFDF91CF911F910F9135
:10092000FF90EF90DF90CF90BF90AF909F908F900F
:100930007F906F905F904F903F902F900895FC01B3
:100940000590615070400110D8F7809590958E0FFA
:100950009F1F0895FC016150704001900110D8F76D
:10096000809590958E0F9F1F08950F931F93CF939F
:10097000DF93FB01238121FD03C08FEF9FEF2CC08C
:1009800022FF16C0468157812481358142175307C3
:1009900044F4A081B1819D012F5F3F4F31832083BB
:1009A0008C93268137812F5F3F4F3783268314C076
:1009B0008B01EC01FB010084F185E02D0995892B69
:1009C000E1F6D80116968D919C911797019617968E
:1009D0009C938E931697CE01DF91CF911F910F912B
:1009E0000895FA01AA27283051F1203181F1E894C5
:1009F0006F936E7F6E5F7F4F8F4F9F4FAF4FB1E012
:100A00003ED0B4E03CD0670F781F891F9A1FA11D0C
:100A1000680F791F8A1F911DA11D6A0F711D811D0D
:100A2000911DA11D20D009F468943F912AE0269FD2
:100A300011243019305D3193DEF6CF010895462F31
:100A40004770405D4193B3E00FD0C9F7F6CF462F12
:100A50004F70405D4A3318F0495D31FD405241937B
:100A600002D0A9F7EACFB4E0A69597958795779538
:100A70006795BA95C9F700976105710508959B01BF
:100A8000AC010A2E06945795479537952795BA9548
:100A9000C9F7620F731F841F951FA01D0895F89456
:020AA000FFCF86
:100AA200FFFFFFFFA902B402C0028000C000940051
:100AB200D4003132333435363738392A302357456A
:100AC2004C434F4D4520544F00434F4D464F5254D7
:100AD20041424C452042454444494E4700535953F4
:100AE20054454D0053455420434F4E4649475552B5
:100AF2004154494F4E00454E544552204D415454A5
:100B0200524553535F5459504500312E534D414C79
:100B12004C00322E4D454449554D00332E4C415226
:100B2200474500454E5445522054494D4520464FB5
:100B3200520053454C4543544544004D4154545290
:100B42004553533A2000256400736D616C6C207329
:100B5200697A65006D656469756D2073697A6500EF
:0C0B62006C617267652073697A650000A1
:00000001FF
